:100000000C942A000C94240D0C94F10C0C94BE0C4E
:100010000C9447000C9447000C94C00B0C943724AC
:100020000C9447000C9447000C945D0B0C94F50A5B
:100030000C9447000C9447000C9447000C94470024
:100040000C9447000C9447000C9447000C94470014
:100050000C94470011241FBECFE5D8E0DEBFCDBF12
:1000600010E0A0E6B0E0E6E2F4E602C005900D92F2
:10007000A039B107D9F715E0A0E9B0E001C01D92A1
:10008000AB37B107E1F70E9465310C9411320C9443
:100090000000EF92FF920F931F937B018C0120E0F1
:1000A00030E040E05FE40E94490388238CF0C801FF
:1000B000B70120E030E040E05FE40E94C1010E940F
:1000C000A9039B01AC01205030404040504806C07D
:1000D000C801B7010E94A9039B01AC01B901CA0183
:1000E0001F910F91FF90EF900895A0E0B0E0EBE733
:1000F000F0E00C94BB31DC012B01FA019C919230B1
:1001000008F439C1EB018881823008F433C194309E
:1001100069F4843009F02FC111969C91119789815F
:10012000981709F428C1ABE7B0E025C1843009F481
:1001300021C18230A9F4923009F01DC19A01AD01AC
:1001400088E0EA010990AE01E90109929E0181501F
:10015000C1F7E201898111969C918923818308C1AD
:10016000923009F407C112962D903C901397EB0141
:100170008A819B811496AD90BD90CD90DC901797AD
:10018000EC80FD800E811F819101281B390BB90184
:1001900037FF04C066277727621B730B6032710537
:1001A0000CF061C0121613066CF537014801062EDB
:1001B00004C096948794779467940A94D2F721E0C8
:1001C00030E040E050E004C0220F331F441F551FB1
:1001D0006A95D2F721503040404050402E213F21B7
:1001E00040235123211531054105510521F021E01E
:1001F00030E040E050E079018A01E628F72808293C
:1002000019293CC0232BD1F1260E371E350146019A
:10021000062E04C096948794779467940A94D2F734
:1002200021E030E040E050E004C0220F331F441FC3
:10023000551F6A95D2F721503040404050402A2146
:100240003B214C215D21211531054105510521F04E
:1002500021E030E040E050E059016A01A628B728CB
:10026000C828D9280BC0821593052CF01C01AA249C
:10027000BB24650103C0EE24FF24870111969C91E5
:10028000D20111968C91981709F445C0992339F041
:10029000A80197012A193B094C095D0906C0A6016E
:1002A00095012E193F09400B510B57FD08C01182D3
:1002B0003382228224833583468357831DC081E0A5
:1002C00081833382228288279927DC01821B930B4A
:1002D000A40BB50B84839583A683B7830DC0220F2F
:1002E000331F441F551F24833583468357838281E0
:1002F000938101979383828324813581468157813D
:10030000DA01C9010197A109B1098F5F9F4FAF4F72
:10031000BF4328F30BC0918333822282EA0CFB1C7B
:100320000C1D1D1DE482F5820683178383E0808304
:10033000248135814681578157FF1AC0C901AA27F8
:1003400097FDA095BA2F81709070A070B0705695EF
:10035000479537952795822B932BA42BB52B848318
:100360009583A683B7838281938101969383828349
:10037000DF0101C0D201CD01CDB7DEB7E2E10C94BF
:10038000D731A0E2B0E0E7ECF1E00C94C73169832B
:100390007A838B839C832D833E834F835887E9E048
:1003A000EE2EF12CEC0EFD1ECE010196B7010E943F
:1003B000D2048E010F5E1F4FCE010596B8010E9438
:1003C000D2048A8991E089278A8BC701B801AE01DE
:1003D000475E5F4F0E9475000E94FD03A096E6E015
:1003E0000C94E331A0E2B0E0E8EFF1E00C94C73107
:1003F00069837A838B839C832D833E834F835887C5
:10040000F9E0EF2EF12CEC0EFD1ECE010196B701A6
:100410000E94D2048E010F5E1F4FCE010596B801D7
:100420000E94D204C701B801AE01475E5F4F0E942F
:1004300075000E94FD03A096E6E00C94E331A0E273
:10044000B0E0E5E2F2E00C94BB3169837A838B8300
:100450009C832D833E834F835887CE010196BE0136
:10046000675F7F4F0E94D204CE010596BE016F5E8A
:100470007F4F0E94D2049985923088F0898982301A
:10048000C8F0943019F4823051F404C0843029F457
:10049000923081F48BE790E0C6C0923049F420E0BE
:1004A0009A858A89981321E02A87CE010996BBC0D4
:1004B000823049F420E09A858A89981321E02A8BBA
:1004C000CE014196B0C02D843E844F8458886D88FB
:1004D0007E888F88988CEE24FF248701AA24BB2471
:1004E000650140E050E060E070E0E0E0F0E0C10174
:1004F00081709070892BE9F0E60CF71C081D191D1E
:100500009A01AB012A0D3B1D4C1D5D1D80E090E062
:10051000A0E0B0E0E614F7040805190520F481E036
:1005200090E0A0E0B0E0BA01A901480F591F6A1F8E
:100530007B1FAA0CBB1CCC1CDD1C97FE08C081E0F5
:1005400090E0A0E0B0E0A82AB92ACA2ADB2A3196B6
:10055000E032F10549F0660C771C881C991C569412
:10056000479437942794C3CFFA85EA892B893C892D
:100570008B859C85280F391F2E5F3F4F17C0CA01FE
:1005800081709070892B61F016950795F794E79428
:1005900080E090E0A0E0B0E8E82AF92A0A2B1B2BC3
:1005A00076956795579547952F5F3F4F77FDE7CF36
:1005B0000CC0440F551F661F771F17FD4160EE0CDE
:1005C000FF1C001F111F21503040403090E05907A0
:1005D00090E0690790E4790760F32B8F3C8FDB0193
:1005E000CA018F779070A070B07080349105A1051A
:1005F000B10561F447FD0AC0E114F10401051105DC
:1006000029F0405C5F4F6F4F7F4F40781A8EFE1786
:1006100011F081E08A8F4D8F5E8F6F8F78A383E01A
:10062000898FCE0149960E94FD03A096E2E10C94C9
:10063000D731A8E1B0E0EFE1F3E00C94C731698372
:100640007A838B839C832D833E834F83588789E0F5
:10065000E82EF12CEC0EFD1ECE010196B7010E9492
:10066000D2048E010F5E1F4FCE010596B8010E9485
:10067000D2048985823040F08989823028F0C70110
:10068000B8010E944A0501C08FEF6896E6E00C941D
:10069000E331A8E1B0E0EFE4F3E00C94C731698303
:1006A0007A838B839C832D833E834F83588789E095
:1006B000E82EF12CEC0EFD1ECE010196B7010E9432
:1006C000D2048E010F5E1F4FCE010596B8010E9425
:1006D000D2048985823040F08989823028F0C701B0
:1006E000B8010E944A0501C08FEF6896E6E00C94BD
:1006F000E331A8E1B0E0EFE7F3E00C94C7316983A0
:100700007A838B839C832D833E834F83588789E034
:10071000E82EF12CEC0EFD1ECE010196B7010E94D1
:10072000D2048E010F5E1F4FCE010596B8010E94C4
:10073000D2048985823040F08989823028F0C7014F
:10074000B8010E944A0501C081E06896E6E00C9479
:10075000E331ACE0B0E0EFEAF3E00C94CB31698335
:100760007A838B839C83CE010196BE016B5F7F4FA2
:100770000E94D2048D81823061F1823050F1843048
:1007800021F48E81882351F12EC02F81388537FDC9
:1007900020C06E812F3131051CF06623F9F023C093
:1007A0008EE190E0821B930B29853A854B855C8511
:1007B00004C056954795379527958A95D2F76623B5
:1007C000B1F050954095309521953F4F4F4F5F4F79
:1007D0000EC020E030E040E050E009C02FEF3FEFD6
:1007E0004FEF5FE704C020E030E040E050E8B9019F
:1007F000CA012C96E2E00C94E731DF92EF92FF926F
:100800000F931F93FC01E480F58006811781D1804E
:100810008081823048F480E090E0A0E1B0E0E82AF6
:10082000F92A0A2B1B2BA5C0843009F49FC0823003
:1008300021F4EE24FF24870105C0E114F104010531
:10084000110519F4E0E0F0E096C0628173819FEF3A
:10085000623879070CF05BC022E83FEF261B370BAC
:100860002A3131052CF020E030E040E050E02AC091
:10087000B801A701022E04C0769567955795479554
:100880000A94D2F781E090E0A0E0B0E004C0880FC5
:10089000991FAA1FBB1F2A95D2F70197A109B10979
:1008A0008E219F21A023B1230097A105B10521F03E
:1008B00081E090E0A0E0B0E09A01AB01282B392B59
:1008C0004A2B5B2BDA01C9018F779070A070B07052
:1008D00080349105A105B10539F427FF09C0205CDA
:1008E0003F4F4F4F5F4F04C0215C3F4F4F4F5F4F13
:1008F000E0E0F0E02030A0E03A07A0E04A07A0E402
:100900005A0710F0E1E0F0E079018A0127C0603871
:10091000710564F5FB01E158FF4FD801C7018F77DE
:100920009070A070B07080349105A105B10539F4C4
:10093000E7FE0DC080E490E0A0E0B0E004C08FE3EB
:1009400090E0A0E0B0E0E80EF91E0A1F1B1F17FFA1
:1009500005C016950795F794E794319687E01695AC
:100960000795F794E7948A95D1F705C0EE24FF2404
:100970008701EFEFF0E06E2F679566276795902F60
:100980009F77D794DD24D7948E2F8695492F462BB9
:10099000582F5D29B701CA011F910F91FF90EF9069
:1009A000DF900895FC01DB01408151812281622F9B
:1009B0006F7770E0221F2227221F9381892F880FD3
:1009C000822B282F30E0991F9927991F11969C930D
:1009D000119721153105A9F54115510561057105DD
:1009E00011F482E037C082E89FEF13969C938E93B8
:1009F00012979A01AB0167E0220F331F441F551F66
:100A00006A95D1F783E08C930DC0220F331F441FEA
:100A1000551F12968D919C911397019713969C9355
:100A20008E931297203080E0380780E0480780E4FA
:100A3000580758F314962D933D934D935C93179755
:100A400008952F3F310579F4411551056105710570
:100A500019F484E08C93089564FF03C081E08C93C3
:100A600012C01C9210C02F57304013963C932E9307
:100A7000129783E08C9387E0440F551F661F771F02
:100A80008A95D1F7706414964D935D936D937C9322
:100A9000179708951F93DC01FB019C91923008F495
:100AA00047C08081823008F443C0943051F41196DD
:100AB0001C91843099F58181682F70E0611B710968
:100AC0003FC0843021F0923031F48230B9F181811D
:100AD000882389F12DC011961C9111978230F1F075
:100AE00081811817D9F412962D913C911397828128
:100AF00093818217930794F028173907BCF0149656
:100B00008D919D910D90BC91A02D248135814681C0
:100B10005781281739074A075B0718F4112341F05A
:100B20000AC082179307A407B50740F4112319F0F0
:100B300061E070E005C06FEF7FEF02C060E070E041
:100B4000CB011F910895DF93CF930F92CDB7DEB7FE
:100B5000198274C08981282F30E0C901880F991F3C
:100B6000880F991F820F931FFC01E057FF4F808170
:100B70009181009709F45FC08981282F30E0C90175
:100B8000880F991F880F991F820F931FFC01EC5645
:100B9000FF4F8081813009F04EC08981882F90E01D
:100BA000880F991FFC01EE53FF4F808191810097C0
:100BB00061F58981282F30E0C901880F991F880FBE
:100BC000991F820F931FFC01E057FF4F0190F081A6
:100BD000E02D09958981482F50E08981282F30E048
:100BE000C901880F991F880F991F820F931FFC015D
:100BF000EE56FF4F20813181CA01880F991FFC01F9
:100C0000EE53FF4F3183208316C08981282F30E0B7
:100C1000C901880F991FFC01EE53FF4F808191811C
:100C2000AC0141505040C901880F991FFC01EE539F
:100C3000FF4F5183408389818F5F898389818A3007
:100C400008F488CF0F90CF91DF910895DF93CF9371
:100C5000CDB7DEB70E94B70883EA95E048E250E0DE
:100C600060E070E00E94560A80E06AEF70E00E9447
:100C7000AA0980E00E943D09CF91DF910895DF939A
:100C8000CF93CDB7DEB727970FB6F894DEBF0FBE70
:100C9000CDBF9B838A837D836C834E832F83198290
:100CA0008E818A3008F055C08E81282F30E0C9012E
:100CB000880F991F880F991F820F931FFC01E0571F
:100CC000FF4F80819181009709F040C08E81282FCD
:100CD00030E0C901880F991F880F991F820F931F59
:100CE000FC01E057FF4F8A819B81918380838E8135
:100CF000282F30E0C901880F991F880F991F820F94
:100D0000931FFC01EE56FF4F8C819D819183808360
:100D10008E81282F30E0C901880F991F880F991FF5
:100D2000820F931FFC01EC56FF4F81E080838E8180
:100D3000282F30E08F81482F50E0C901880F991F7C
:100D4000FC01EE53FF4F5183408305C082E089834D
:100D500002C081E08983898127960FB6F894DEBFAF
:100D60000FBECDBFCF91DF910895DF93CF93CDB765
:100D7000DEB727970FB6F894DEBF0FBECDBF8A83CC
:100D800019828A81282F30E0C901880F991F880FA6
:100D9000991F820F931FFC01E057FF4F80819181C3
:100DA000009759F18A81282F30E0C901880F991FD7
:100DB000880F991F820F931F80579F4F9C838B83AF
:100DC00086ED90E09E838D8395E09F83ED81FE818B
:100DD00000808D819E8101969E838D83EB81FC81B5
:100DE00000828B819C8101969C838B839F81915093
:100DF0009F83EF81EE2351F702C083E089838981CD
:100E000027960FB6F894DEBF0FBECDBFCF91DF910E
:100E10000895DF93CF9300D0CDB7DEB78A831982D0
:100E20008A81282F30E0C901880F991F880F991FE8
:100E3000820F931FFC01E057FF4F80819181009743
:100E400079F08A81282F30E0C901880F991F880F17
:100E5000991F820F931FFC01EC56FF4F108202C0B6
:100E600083E0898389810F900F90CF91DF9108955E
:100E7000DF93CF9300D0CDB7DEB78A8319828A8102
:100E8000282F30E0C901880F991F880F991F820F02
:100E9000931FFC01E057FF4F80819181009781F003
:100EA0008A81282F30E0C901880F991F880F991F68
:100EB000820F931FFC01EC56FF4F81E0808302C03C
:100EC00083E0898389810F900F90CF91DF910895FE
:100ED000DF93CF93CDB7DEB7A1E4B0E0E1E4F0E07B
:100EE000808188608C93CF91DF910895DF93CF93B9
:100EF000CDB7DEB7A1E4B0E0E1E4F0E08081886145
:100F00008C93E1E4F0E01082CF91DF910895DF93BC
:100F1000CF93CDB7DEB7A1E4B0E0E1E4F0E08081AB
:100F2000887F8C93A1E4B0E0E1E4F0E08081876009
:100F30008C93CF91DF910895DF93CF93CDB7DEB738
:100F4000EAE2F0E088E18083E0E4F0E086E8808394
:100F5000E9E2F0E083E38083E0E4F0E01082CF9107
:100F6000DF910895DF93CF930F92CDB7DEB78983DA
:100F7000EBE2F0E08081829586958770882F90E083
:100F8000817090700097A1F3ECE2F0E0898180839A
:100F90000F90CF91DF910895DF93CF93CDB7DEB758
:100FA000EBE2F0E080818823DCF7ECE2F0E0808186
:100FB000CF91DF910895DF93CF93CDB7DEB7E0E215
:100FC000F0E080E28083CF91DF910895DF93CF93AB
:100FD000CDB7DEB7E6E5F0E084EA8083E6E5F0E051
:100FE00080818823DCF7E1E2F0E08081887FCF9187
:100FF000DF910895DF93CF93CDB7DEB7E6E5F0E05C
:1010000084EA8083E6E5F0E080818823DCF7E1E292
:10101000F0E08081887FCF91DF910895DF93CF93B7
:10102000CDB7DEB7E6E5F0E080EB8083E1E2F0E00B
:101030008081887FCF91DF910895DF93CF9300D097
:10104000CDB7DEB789836A83E3E2F0E08981882F38
:1010500090E0880F991F982F8A81892B8083E6E57D
:10106000F0E084E88083A6E5B0E0E6E5F0E080818A
:101070008F7D8C93E6E5F0E080818823DCF7E1E268
:10108000F0E08081887F0F900F90CF91DF910895DD
:10109000DF93CF930F92CDB7DEB78983E3E2F0E021
:1010A00089818083E6E5F0E084E88083E6E5F0E08E
:1010B00080818823DCF7E1E2F0E08081887F0F9077
:1010C000CF91DF910895DF93CF930F92CDB7DEB725
:1010D0008983E1E2F0E08081887F0F90CF91DF91FA
:1010E0000895DF93CF9300D000D00F92CDB7DEB735
:1010F0009A8389836B838B81282F30E03D832C83F7
:101100008C819D81009789F02C813D8121303105B2
:10111000B9F4E6E5F0E084E88083A6E5B0E0E6E532
:10112000F0E0808180648C930BC0E6E5F0E084E819
:101130008083A6E5B0E0E6E5F0E080818F7B8C93CC
:10114000E6E5F0E080818823DCF7E3E2F0E08081EF
:10115000E981FA818083E1E2F0E08081887F0F906D
:101160000F900F900F900F90CF91DF910895DF9324
:10117000CF93CDB7DEB7A3E5B0E0E3E5F0E0808143
:1011800088608C93A3E5B0E0E3E5F0E080818064C3
:101190008C93A3E5B0E0E3E5F0E0808180628C937E
:1011A000A3E5B0E0E3E5F0E080818F7E8C9380E002
:1011B00063E00E94D609A3E5B0E0E3E5F0E08081BA
:1011C0008E7F8C93A3E5B0E0E3E5F0E080818D7F36
:1011D0008C93A3E5B0E0E3E5F0E080818B7F8C9316
:1011E000AFE4B0E0EFE4F0E080818E7F8C93AFE479
:1011F000B0E0EFE4F0E080818D7F8C93AEE4B0E06E
:10120000EEE4F0E08081877F8C93AEE4B0E0EEE422
:10121000F0E080818F7E8C93AFE4B0E0EFE4F0E00B
:1012200080818F7B8C93AFE4B0E0EFE4F0E08081CD
:101230008F778C93AEE4B0E0EEE4F0E080818064E0
:101240008C9381E064E00E94D609AEE4B0E0EEE465
:10125000F0E080818E7F8C93AEE4B0E0EEE4F0E0CD
:1012600080818D7F8C93AEE4B0E0EEE4F0E080818D
:101270008B7F8C93CF91DF910895DF93CF930F9263
:10128000CDB7DEB789838981882341F4A3E5B0E037
:10129000E3E5F0E08081887F82608C9389818130F2
:1012A00041F4AEE4B0E0EEE4F0E08081887F82605B
:1012B0008C930F90CF91DF910895DF93CF930F928E
:1012C000CDB7DEB789838981882339F4A3E5B0E0FF
:1012D000E3E5F0E08081887F8C938981813039F467
:1012E000AEE4B0E0EEE4F0E08081887F8C930F9074
:1012F000CF91DF910895DF93CF9300D000D00F926C
:10130000CDB7DEB789837B836A838981282F30E05C
:101310003D832C838C819D81009731F02C813D8110
:101320002130310549F00EC0E2E5F0E08A8180838A
:101330008A818093E10006C0ECE4F0E08A819B8121
:10134000918380830F900F900F900F900F90CF910B
:10135000DF910895DF93CF9300D000D00F92CDB7E7
:10136000DEB789837B836A838981282F30E03D83C0
:101370002C838C819D81009731F02C813D8122301E
:10138000310531F00BC0ECE5F0E08A81808306C0C6
:10139000EAE4F0E08A819B81918380830F900F9033
:1013A0000F900F900F90CF91DF910895DF93CF931F
:1013B00000D000D0CDB7DEB789836A8389818823C6
:1013C000F1F48A81282F30E03C832B838B819C8130
:1013D000009731F02B813C812130310549F00FC05D
:1013E000A9E5B0E0E9E5F0E0808181608C9307C079
:1013F000A9E5B0E0E9E5F0E0808182608C93898125
:10140000813069F48A81882F90E08430910539F425
:10141000A9E5B0E0E9E5F0E0808180628C930F906F
:101420000F900F900F90CF91DF910895DF93CF939E
:1014300000D000D0CDB7DEB789836A838981882345
:10144000F1F48A81282F30E03C832B838B819C81AF
:10145000009731F02B813C812130310549F00FC0DC
:10146000A9E5B0E0E9E5F0E080818E7F8C9307C0CC
:10147000A9E5B0E0E9E5F0E080818D7F8C9389817A
:10148000813069F48A81882F90E08430910539F4A5
:10149000A9E5B0E0E9E5F0E080818F7D8C930F90C5
:1014A0000F900F900F90CF91DF910895DF93CF931E
:1014B00000D000D000D0CDB7DEB79A8389834B83AC
:1014C0005C836D837E838B819C81AD81BE818093A3
:1014D000E2009093E300A093E400B093E5008981DB
:1014E0009A819093DE008093DD0026960FB6F894E3
:1014F000DEBF0FBECDBFCF91DF910895DF93CF93B5
:1015000000D000D000D0CDB7DEB79A8389834B835B
:101510005C836D837E838B819C81AD81BE81809352
:10152000E2009093E300A093E400B093E50089818A
:101530009A819093DC008093DB0026960FB6F89496
:10154000DEBF0FBECDBFCF91DF910895DF93CF9364
:1015500000D00F92CDB7DEB789838981282F30E084
:101560003B832A838A819B81009731F02A813B81CA
:101570002130310549F00FC0AEE4B0E0EEE4F0E018
:10158000808180648C9307C0AEE4B0E0EEE4F0E0CC
:1015900080818F7B8C93A8E5B0E0E8E5F0E0808166
:1015A00080628C930F900F900F90CF91DF910895F0
:1015B000DF93CF93CDB7DEB7E6E4F0E08081918191
:1015C000CF91DF910895DF93CF9300D0CDB7DEB7F1
:1015D0009A83898389819A819093E0008093DF00C8
:1015E0000F900F90CF91DF9108951F920F920FB639
:1015F0000F9211242F933F934F935F936F937F9399
:101600008F939F93AF93BF93EF93FF93DF93CF930A
:10161000CDB7DEB78091E6009091E700A091E80099
:10162000B091E9000196A11DB11D8093E600909351
:10163000E700A093E800B093E9002091E600309124
:10164000E7004091E8005091E9008091E20090911C
:10165000E300A091E400B091E500281739074A079C
:101660005B07C1F4E2E5F0E08091E10080838091C6
:10167000DB009091DC00009729F0E091DB00F09115
:10168000DC0009951092E6001092E7001092E80045
:101690001092E900CF91DF91FF91EF91BF91AF914F
:1016A0009F918F917F916F915F914F913F912F917A
:1016B0000F900FBE0F901F9018951F920F920FB6AC
:1016C0000F9211242F933F934F935F936F937F93C8
:1016D0008F939F93AF93BF93EF93FF93DF93CF933A
:1016E000CDB7DEB78091EA009091EB00A091EC00BD
:1016F000B091ED000196A11DB11D8093EA00909379
:10170000EB00A093EC00B093ED002091EA00309143
:10171000EB004091EC005091ED008091E20090913F
:10172000E300A091E400B091E500281739074A07CB
:101730005B0799F48091DD009091DE00009729F01D
:10174000E091DD00F091DE0009951092EA00109220
:10175000EB001092EC001092ED00CF91DF91FF9121
:10176000EF91BF91AF919F918F917F916F915F9119
:101770004F913F912F910F900FBE0F901F90189592
:101780001F920F920FB60F9211242F933F934F93F6
:101790005F936F937F938F939F93AF93BF93EF93D9
:1017A000FF93DF93CF93CDB7DEB78091DF009091A9
:1017B000E000009729F0E091DF00F091E00009954A
:1017C000CF91DF91FF91EF91BF91AF919F918F9159
:1017D0007F916F915F914F913F912F910F900FBE2D
:1017E0000F901F901895DF93CF93CDB7DEB781E0B0
:1017F00064E041E00E94760D81E065E041E00E94F6
:10180000760D81E067E041E00E94760D81E066E0C0
:1018100040E00E94760D81E066E041E00E946D0E9E
:10182000EDE2F0E08AE58083AEE2B0E0EEE2F0E0E7
:1018300080818E7F8C93CF91DF910895DF93CF933A
:101840000F92CDB7DEB78983EFE2F0E08981808324
:10185000EEE2F0E080818823DCF70F90CF91DF91FA
:101860000895DF93CF93CDB7DEB7EEE2F0E080814D
:101870008823DCF7EFE2F0E08081CF91DF910895DB
:10188000DF93CF930F92CDB7DEB78983EFE2F0E01D
:1018900089818083EEE2F0E080818823DCF7EFE24B
:1018A000F0E080810F90CF91DF910895DF93CF9387
:1018B000CDB7DEB7AFE5B0E0EFE5F0E0808180685E
:1018C0008C93CF91DF910895DF93CF93CDB7DEB79F
:1018D000AFE5B0E0EFE5F0E080818F778C93CF91BA
:1018E000DF910895DF93CF93CDB7DEB7A5E5B0E0E4
:1018F000E5E5F0E0808181608C93A5E5B0E0E5E569
:10190000F0E0808182608C93ABE5B0E0EBE5F0E045
:10191000808180648C93A5E5B0E0E5E5F0E080810E
:101920008B7F8C93A5E5B0E0E5E5F0E080818860F1
:101930008C93ABE5B0E0EBE5F0E0808180688C93C0
:10194000CF91DF910895DF93CF9300D00F92CDB761
:10195000DEB79A8389836B838B81882F90E0880F11
:10196000991FFC01E251FF4F89819A819183808305
:101970000F900F900F90CF91DF9108951F920F92CB
:101980000FB60F9211242F933F934F935F936F9352
:101990007F938F939F93AF93BF93EF93FF93DF93C7
:1019A000CF93CDB7DEB78091F2009091F30000970E
:1019B00029F0E091F200F091F3000995CF91DF91C9
:1019C000FF91EF91BF91AF919F918F917F916F9117
:1019D0005F914F913F912F910F900FBE0F901F90ED
:1019E00018951F920F920FB60F9211242F933F93C9
:1019F0004F935F936F937F938F939F93AF93BF9317
:101A0000EF93FF93DF93CF93CDB7DEB78091F000D4
:101A10009091F100009729F0E091F000F091F10031
:101A20000995CF91DF91FF91EF91BF91AF919F9178
:101A30008F917F916F915F914F913F912F910F9077
:101A40000FBE0F901F9018951F920F920FB60F9216
:101A500011242F933F934F935F936F937F938F93B3
:101A60009F93AF93BF93EF93FF93DF93CF93CDB744
:101A7000DEB78091EE009091EF00009729F0E091A1
:101A8000EE00F091EF000995CF91DF91FF91EF917A
:101A9000BF91AF919F918F917F916F915F914F9186
:101AA0003F912F910F900FBE0F901F901895DF93CD
:101AB000CF93CDB7DEB7EAE3F0E01082E7E3F0E0E2
:101AC0001082E4E3F0E01082E1E3F0E01082EBE367
:101AD000F0E01082E8E3F0E01082E5E3F0E010824D
:101AE000E2E3F0E01082CF91DF910895DF93CF938E
:101AF000CDB7DEB727970FB6F894DEBF0FBECDBFC8
:101B000089836A834B838B81813009F06BC0898123
:101B1000282F30E03F832E838E819F818130910575
:101B200041F12E813F81223031052CF48E819F813D
:101B3000009761F0C9C02E813F812230310561F1EB
:101B40008E819F8183309105D1F1BEC0AAE3B0E0C0
:101B5000EAE3F0E040818A81282F30E081E090E0E4
:101B6000022E02C0880F991F0A94E2F7842B8C93EF
:101B7000ABC0A7E3B0E0E7E3F0E040818A81282F23
:101B800030E081E090E0022E02C0880F991F0A9495
:101B9000E2F7842B8C9398C0A4E3B0E0E4E3F0E098
:101BA00040818A81282F30E081E090E0022E02C03F
:101BB000880F991F0A94E2F7842B8C9385C0A1E3C8
:101BC000B0E0E1E3F0E040818A81282F30E081E05D
:101BD00090E0022E02C0880F991F0A94E2F7842B2E
:101BE0008C9372C08B81882309F06EC08981282F65
:101BF00030E03D832C838C819D818130910549F1BA
:101C00002C813D81223031052CF48C819D810097FF
:101C100061F05AC02C813D812230310571F18C81F7
:101C20009D8183309105E9F14FC0AAE3B0E0EAE37A
:101C3000F0E040818A81282F30E081E090E0022EA0
:101C400002C0880F991F0A94E2F7809584238C9331
:101C50003BC0A7E3B0E0E7E3F0E040818A81282FB2
:101C600030E081E090E0022E02C0880F991F0A94B4
:101C7000E2F7809584238C9327C0A4E3B0E0E4E3EB
:101C8000F0E040818A81282F30E081E090E0022E50
:101C900002C0880F991F0A94E2F7809584238C93E1
:101CA00013C0A1E3B0E0E1E3F0E040818A81282F96
:101CB00030E081E090E0022E02C0880F991F0A9464
:101CC000E2F7809584238C9327960FB6F894DEBFB5
:101CD0000FBECDBFCF91DF910895DF93CF93CDB7E6
:101CE000DEB727970FB6F894DEBF0FBECDBF89834E
:101CF0006A834B838B81813009F06BC08981282FE7
:101D000030E03F832E838E819F818130910541F1A8
:101D10002E813F81223031052CF48E819F810097E6
:101D200061F0C9C02E813F812230310561F18E8181
:101D30009F8183309105D1F1BEC0ABE3B0E0EBE30E
:101D4000F0E040818A81282F30E081E090E0022E8F
:101D500002C0880F991F0A94E2F7842B8C93ABC0C2
:101D6000A8E3B0E0E8E3F0E040818A81282F30E08A
:101D700081E090E0022E02C0880F991F0A94E2F7DA
:101D8000842B8C9398C0A5E3B0E0E5E3F0E04081BC
:101D90008A81282F30E081E090E0022E02C0880F77
:101DA000991F0A94E2F7842B8C9385C0A2E3B0E0DC
:101DB000E2E3F0E040818A81282F30E081E090E08A
:101DC000022E02C0880F991F0A94E2F7842B8C938D
:101DD00072C08B81882309F06EC08981282F30E082
:101DE0003D832C838C819D818130910549F12C812B
:101DF0003D81223031052CF48C819D81009761F06A
:101E00005AC02C813D812230310571F18C819D8138
:101E100083309105E9F14FC0ABE3B0E0EBE3F0E0D4
:101E200040818A81282F30E081E090E0022E02C0BC
:101E3000880F991F0A94E2F7809584238C933BC006
:101E4000A8E3B0E0E8E3F0E040818A81282F30E0A9
:101E500081E090E0022E02C0880F991F0A94E2F7F9
:101E6000809584238C9327C0A5E3B0E0E5E3F0E000
:101E700040818A81282F30E081E090E0022E02C06C
:101E8000880F991F0A94E2F7809584238C9313C0DE
:101E9000A2E3B0E0E2E3F0E040818A81282F30E065
:101EA00081E090E0022E02C0880F991F0A94E2F7A9
:101EB000809584238C9327960FB6F894DEBF0FBECF
:101EC000CDBFCF91DF910895DF93CF9300D000D0A5
:101ED0000F92CDB7DEB78A836B8319828A81282F50
:101EE00030E03D832C834C815D814130510541F1CF
:101EF0008C819D818230910534F42C813D812115A6
:101F0000310561F052C04C815D814230510551F183
:101F10008C819D8183309105B9F147C0E9E3F0E000
:101F20008081282F30E08B81882F90E0A90102C0AA
:101F3000559547958A95E2F7CA018170898335C026
:101F4000E6E3F0E08081282F30E08B81882F90E05D
:101F5000A90102C0559547958A95E2F7CA0181709B
:101F6000898323C0E3E3F0E08081282F30E08B8178
:101F7000882F90E0A90102C0559547958A95E2F710
:101F8000CA018170898311C0E0E3F0E08081282FCD
:101F900030E08B81882F90E0A90102C055954795CC
:101FA0008A95E2F7CA018170898389810F900F9029
:101FB0000F900F900F90CF91DF910895DF93CF9303
:101FC00000D000D0CDB7DEB789836A838981282FFE
:101FD00030E03C832B838B819C8181309105D1F053
:101FE0002B813C81223031052CF48B819C81009720
:101FF00061F01EC02B813C812230310581F08B8144
:102000009C818330910581F013C0EAE3F0E08A817E
:1020100080830EC0E7E3F0E08A81808309C0E4E3B7
:10202000F0E08A81808304C0E1E3F0E08A8180836C
:102030000F900F900F900F90CF91DF910895DF9345
:10204000CF9300D000D0CDB7DEB789836A83898172
:10205000282F30E03C832B838B819C81813091053C
:10206000D1F02B813C81223031052CF48B819C8175
:10207000009761F01EC02B813C812230310581F038
:102080008B819C818330910581F013C0EBE3F0E0FC
:102090008A8180830EC0E8E3F0E08A81808309C0F2
:1020A000E5E3F0E08A81808304C0E2E3F0E08A8126
:1020B00080830F900F900F900F90CF91DF91089534
:1020C000DF93CF9300D000D0CDB7DEB78A831982DB
:1020D0008A81282F30E03C832B838B819C81813047
:1020E0009105D1F02B813C81223031052CF48B817C
:1020F0009C81009761F01EC02B813C81223031050C
:1021000081F08B819C818330910581F013C0E9E3DC
:10211000F0E0808189830EC0E6E3F0E0808189836E
:1021200009C0E3E3F0E08081898304C0E0E3F0E0EC
:102130008081898389810F900F900F900F90CF91AC
:10214000DF910895DF93CF9300D000D0CDB7DEB7F5
:1021500089836A838981282F30E03C832B838B819C
:102160009C818130910541F12B813C8122303105E8
:102170002CF48B819C81009761F056C02B813C81AF
:102180002230310561F18B819C8183309105D1F141
:102190004BC0ABE3B0E0EBE3F0E040818A81282F55
:1021A00030E081E090E0022E02C0880F991F0A946F
:1021B000E2F784278C9338C0A8E3B0E0E8E3F0E0CE
:1021C00040818A81282F30E081E090E0022E02C019
:1021D000880F991F0A94E2F784278C9325C0A5E302
:1021E000B0E0E5E3F0E040818A81282F30E081E033
:1021F00090E0022E02C0880F991F0A94E2F784270C
:102200008C9312C0A2E3B0E0E2E3F0E040818A8167
:10221000282F30E081E090E0022E02C0880F991F45
:102220000A94E2F784278C930F900F900F900F90F1
:10223000CF91DF910895DF93CF93CDB7DEB7A7E2BB
:10224000B0E0E7E2F0E080818F778C93A7E2B0E026
:10225000E7E2F0E0808180648C93A7E2B0E0E7E2FF
:10226000F0E080818F7D8C93A6E2B0E0E6E2F0E0C2
:10227000808184608C93A6E2B0E0E6E2F0E08081A9
:1022800082608C93A6E2B0E0E6E2F0E080818E7F8F
:102290008C93A6E2B0E0E6E2F0E080818F7D8C9343
:1022A000A6E2B0E0E6E2F0E08081877F8C93A6E2D0
:1022B000B0E0E6E2F0E0808180688C93CF91DF911E
:1022C0000895DF93CF930F92CDB7DEB78983A7E24E
:1022D000B0E0E7E2F0E08081982F907E89818770FE
:1022E000892B8C93A6E2B0E0E6E2F0E08081806486
:1022F0008C93E6E2F0E0808182958F70882F90E0E9
:10230000817090700097A9F3A6E2B0E0E6E2F0E0F9
:10231000808180618C93E4E2F0E0808191810F9074
:10232000CF91DF910895DF93CF93CDB7DEB780E0F3
:1023300061E041E00E94760D80E060E041E00E94B3
:10234000760D80E062E041E00E94760D80E063E07F
:1023500041E00E94760DCF91DF910895DF93CF93F6
:10236000CDB7DEB7EC970FB6F894DEBF0FBECDBF8A
:1023700069AF7AAF8BAF9CAF80E061E041E00E9433
:102380006D0E80E060E040E00E946D0E80E063E052
:1023900040E00E946D0E80E062E040E00E946D0E21
:1023A00089AD9AADABADBCAD8DAB9EABAFABB8AFAD
:1023B0006DA97EA98FA998AD20E030E04AEF54E4E2
:1023C0000E941F02DC01CB0189AB9AABABABBCAB6B
:1023D00069A97AA98BA99CA920E030E040E85FE3D5
:1023E0000E94790388232CF481E090E098AB8FA7BA
:1023F0003FC069A97AA98BA99CA920E03FEF4FE7CC
:1024000057E40E94190318164CF56DA97EA98FA9EF
:1024100098AD20E030E040E251E40E941F02DC0170
:10242000CB01BC01CD010E944900DC01CB0198AB7E
:102430008FA70FC088EC90E09EA78DA78DA59EA5C5
:102440000197F1F79EA78DA78FA598A9019798AB43
:102450008FA78FA598A9009769F714C069A97AA9D1
:102460008BA99CA90E944900DC01CB0198AB8FA7E6
:102470008FA598A99CA78BA78BA59CA50197F1F781
:102480009CA78BA780E061E040E00E946D0E80E099
:1024900060E041E00E946D0E80E063E040E00E9459
:1024A0006D0E80E062E040E00E946D0E89AD9AAD55
:1024B000ABADBCAD8FA398A7A9A7BAA76FA178A50C
:1024C00089A59AA520E030E04AEF54E40E941F025B
:1024D000DC01CB018BA39CA3ADA3BEA36BA17CA10C
:1024E0008DA19EA120E030E040E85FE30E947903E7
:1024F00088232CF481E090E09AA389A33FC06BA1CC
:102500007CA18DA19EA120E03FEF4FE757E40E9400
:10251000190318164CF56FA178A589A59AA520E096
:1025200030E040E251E40E941F02DC01CB01BC011B
:10253000CD010E944900DC01CB019AA389A30FC001
:1025400088EC90E098A38F8F8F8D98A10197F1F779
:1025500098A38F8F89A19AA101979AA389A389A192
:102560009AA1009769F714C06BA17CA18DA19EA1CF
:102570000E944900DC01CB019AA389A389A19AA1F9
:102580009E8F8D8F8D8D9E8D0197F1F79E8F8D8FF4
:1025900080E061E040E00E946D0E80E060E040E09D
:1025A0000E946D0E80E063E041E00E946D0E80E0CD
:1025B00062E040E00E946D0E89AD9AADABADBCAD5E
:1025C000898F9A8FAB8FBC8F698D7A8D8B8D9C8D07
:1025D00020E030E04AEF54E40E941F02DC01CB010E
:1025E0008D8B9E8BAF8BB88F6D897E898F89988DEF
:1025F00020E030E040E85FE30E94790388232CF478
:1026000081E090E09C8B8B8B3FC06D897E898F89A8
:10261000988D20E03FEF4FE757E40E94190318160A
:102620004CF5698D7A8D8B8D9C8D20E030E040E2F9
:1026300051E40E941F02DC01CB01BC01CD010E94CC
:102640004900DC01CB019C8B8B8B0FC088EC90E0A8
:102650009A8B898B89899A890197F1F79A8B898B53
:102660008B899C8901979C8B8B8B8B899C8900978C
:1026700069F714C06D897E898F89988D0E94490001
:10268000DC01CB019C8B8B8B8B899C89988B8F87F2
:102690008F8598890197F1F7988B8F8780E061E0AB
:1026A00040E00E946D0E80E060E040E00E946D0E10
:1026B00080E063E040E00E946D0E80E062E041E077
:1026C0000E946D0E89AD9AADABADBCAD8B879C877A
:1026D000AD87BE876B857C858D859E8520E030E04B
:1026E0004AEF54E40E941F02DC01CB018F839887DC
:1026F000A987BA876F81788589859A8520E030E03F
:1027000040E85FE30E94790388232CF481E090E0A5
:102710009E838D833FC06F81788589859A8520E06F
:102720003FEF4FE757E40E94190318164CF56B85ED
:102730007C858D859E8520E030E040E251E40E945A
:102740001F02DC01CB01BC01CD010E944900DC016C
:10275000CB019E838D830FC088EC90E09C838B839C
:102760008B819C810197F1F79C838B838D819E8166
:1027700001979E838D838D819E81009769F714C098
:102780006F81788589859A850E944900DC01CB019B
:102790009E838D838D819E819A83898389819A818D
:1027A0000197F1F79A838983EC960FB6F894DEBF10
:1027B0000FBECDBFCF91DF910895DF93CF93CDB7FB
:1027C000DEB7EC970FB6F894DEBF0FBECDBF69AF92
:1027D0007AAF8BAF9CAF80E061E040E00E946D0E6D
:1027E00080E060E040E00E946D0E80E063E040E049
:1027F0000E946D0E80E062E041E00E946D0E89ADA6
:102800009AADABADBCAD8DAB9EABAFABB8AF6DA968
:102810007EA98FA998AD20E030E04AEF54E40E94F1
:102820001F02DC01CB0189AB9AABABABBCAB69A996
:102830007AA98BA99CA920E030E040E85FE30E94E0
:10284000790388232CF481E090E098AB8FA73FC0F8
:1028500069A97AA98BA99CA920E03FEF4FE757E42B
:102860000E94190318164CF56DA97EA98FA998AD81
:1028700020E030E040E251E40E941F02DC01CB0185
:10288000BC01CD010E944900DC01CB0198AB8FA7B0
:102890000FC088EC90E09EA78DA78DA59EA50197FF
:1028A000F1F79EA78DA78FA598A9019798AB8FA741
:1028B0008FA598A9009769F714C069A97AA98BA96F
:1028C0009CA90E944900DC01CB0198AB8FA78FA582
:1028D00098A99CA78BA78BA59CA50197F1F79CA70E
:1028E0008BA780E061E040E00E946D0E80E060E038
:1028F00040E00E946D0E80E063E041E00E946D0EBA
:1029000080E062E040E00E946D0E89AD9AADABAD13
:10291000BCAD8FA398A7A9A7BAA76FA178A589A5D1
:102920009AA520E030E04AEF54E40E941F02DC0147
:10293000CB018BA39CA3ADA3BEA36BA17CA18DA156
:102940009EA120E030E040E85FE30E947903882305
:102950002CF481E090E09AA389A33FC06BA17CA1F5
:102960008DA19EA120E03FEF4FE757E40E9419039D
:1029700018164CF56FA178A589A59AA520E030E03E
:1029800040E251E40E941F02DC01CB01BC01CD01F9
:102990000E944900DC01CB019AA389A30FC088ECF7
:1029A00090E098A38F8F8F8D98A10197F1F798A34E
:1029B0008F8F89A19AA101979AA389A389A19AA12E
:1029C000009769F714C06BA17CA18DA19EA10E9404
:1029D0004900DC01CB019AA389A389A19AA19E8F0A
:1029E0008D8F8D8D9E8D0197F1F79E8F8D8F80E05D
:1029F00061E040E00E946D0E80E060E041E00E94F6
:102A00006D0E80E063E040E00E946D0E80E062E0C9
:102A100040E00E946D0E89AD9AADABADBCAD898F23
:102A20009A8FAB8FBC8F698D7A8D8B8D9C8D20E0BA
:102A300030E04AEF54E40E941F02DC01CB018D8B91
:102A40009E8BAF8BB88F6D897E898F89988D20E0A2
:102A500030E040E85FE30E94790388232CF481E0B2
:102A600090E09C8B8B8B3FC06D897E898F89988D80
:102A700020E03FEF4FE757E40E94190318164CF58A
:102A8000698D7A8D8B8D9C8D20E030E040E251E4A1
:102A90000E941F02DC01CB01BC01CD010E94490054
:102AA000DC01CB019C8B8B8B0FC088EC90E09A8B68
:102AB000898B89899A890197F1F79A8B898B8B8900
:102AC0009C8901979C8B8B8B8B899C89009769F7DC
:102AD00014C06D897E898F89988D0E944900DC0120
:102AE000CB019C8B8B8B8B899C89988B8F878F8557
:102AF00098890197F1F7988B8F8780E061E041E03A
:102B00000E946D0E80E060E040E00E946D0E80E06B
:102B100063E040E00E946D0E80E062E040E00E94D1
:102B20006D0E89AD9AADABADBCAD8B879C87AD8783
:102B3000BE876B857C858D859E8520E030E04AEFE1
:102B400054E40E941F02DC01CB018F839887A98780
:102B5000BA876F81788589859A8520E030E040E8E2
:102B60005FE30E94790388232CF481E090E09E8348
:102B70008D833FC06F81788589859A8520E03FEFFE
:102B80004FE757E40E94190318164CF56B857C85B6
:102B90008D859E8520E030E040E251E40E941F02D6
:102BA000DC01CB01BC01CD010E944900DC01CB015D
:102BB0009E838D830FC088EC90E09C838B838B81F8
:102BC0009C810197F1F79C838B838D819E81019776
:102BD0009E838D838D819E81009769F714C06F81DC
:102BE000788589859A850E944900DC01CB019E8306
:102BF0008D838D819E819A83898389819A810197B2
:102C0000F1F79A838983EC960FB6F894DEBF0FBE76
:102C1000CDBFCF91DF910895DF93CF93CDB7DEB7CE
:102C200080E061E040E00E946D0E80E060E040E006
:102C30000E946D0E80E063E040E00E946D0E80E037
:102C400062E040E00E946D0ECF91DF910895DF9326
:102C5000CF93CDB7DEB780E06FEF0E94DE0FCF914C
:102C6000DF910895DF93CF930F92CDB7DEB78983BD
:102C700089818A3058F48981882F90E0FC01ED57D2
:102C8000FF4F908180E0692F0E941F100F90CF911D
:102C9000DF910895DF93CF93CDB7DEB780E060E09A
:102CA0000E941F10CF91DF910895DF93CF93CDB78E
:102CB000DEB7E8970FB6F894DEBF0FBECDBF80E059
:102CC00060E041E00E94760D80E061E041E00E941A
:102CD000760D80E062E041E00E94760D82E06FEFC9
:102CE0000E94DE0F80E090E0A8E4B2E48DAB9EABE2
:102CF000AFABB8AF6DA97EA98FA998AD20E030E049
:102D00004AEF54E40E941F02DC01CB0189AB9AAB6D
:102D1000ABABBCAB69A97AA98BA99CA920E030E038
:102D200040E85FE30E94790388232CF481E090E07F
:102D300098AB8FA73FC069A97AA98BA99CA920E06D
:102D40003FEF4FE757E40E94190318164CF56DA9A1
:102D50007EA98FA998AD20E030E040E251E40E94C6
:102D60001F02DC01CB01BC01CD010E944900DC0146
:102D7000CB0198AB8FA70FC088EC90E09EA78DA7E2
:102D80008DA59EA50197F1F79EA78DA78FA598A960
:102D9000019798AB8FA78FA598A9009769F714C0E2
:102DA00069A97AA98BA99CA90E944900DC01CB01E1
:102DB00098AB8FA78FA598A99CA78BA78BA59CA53F
:102DC0000197F1F79CA78BA788E30E944F1880E03A
:102DD00090E0A0E8BFE38FA398A7A9A7BAA76FA127
:102DE00078A589A59AA520E030E04AEF54E40E9436
:102DF0001F02DC01CB018BA39CA3ADA3BEA36BA1DF
:102E00007CA18DA19EA120E030E040E85FE30E941C
:102E1000790388232CF481E090E09AA389A33FC032
:102E20006BA17CA18DA19EA120E03FEF4FE757E46D
:102E30000E94190318164CF56FA178A589A59AA5CB
:102E400020E030E040E251E40E941F02DC01CB01AF
:102E5000BC01CD010E944900DC01CB019AA389A3EA
:102E60000FC088EC90E098A38F8F8F8D98A1019769
:102E7000F1F798A38F8F89A19AA101979AA389A3AB
:102E800089A19AA1009769F714C06BA17CA18DA1BB
:102E90009EA10E944900DC01CB019AA389A389A1CC
:102EA0009AA19E8F8D8F8D8D9E8D0197F1F79E8FAC
:102EB0008D8F8CE00E944F1880E090E0A0E8BFE387
:102EC000898F9A8FAB8FBC8F698D7A8D8B8D9C8DFE
:102ED00020E030E04AEF54E40E941F02DC01CB0105
:102EE0008D8B9E8BAF8BB88F6D897E898F89988DE6
:102EF00020E030E040E85FE30E94790388232CF46F
:102F000081E090E09C8B8B8B3FC06D897E898F899F
:102F1000988D20E03FEF4FE757E40E941903181601
:102F20004CF5698D7A8D8B8D9C8D20E030E040E2F0
:102F300051E40E941F02DC01CB01BC01CD010E94C3
:102F40004900DC01CB019C8B8B8B0FC088EC90E09F
:102F50009A8B898B89899A890197F1F79A8B898B4A
:102F60008B899C8901979C8B8B8B8B899C89009783
:102F700069F714C06D897E898F89988D0E944900F8
:102F8000DC01CB019C8B8B8B8B899C89988B8F87E9
:102F90008F8598890197F1F7988B8F8781E00E9440
:102FA0004F1880E090E0A0E0B0E48B879C87AD876D
:102FB000BE876B857C858D859E8520E030E04AEF5D
:102FC00054E40E941F02DC01CB018F839887A987FC
:102FD000BA876F81788589859A8520E030E040E85E
:102FE0005FE30E94790388232CF481E090E09E83C4
:102FF0008D833FC06F81788589859A8520E03FEF7A
:103000004FE757E40E94190318164CF56B857C8531
:103010008D859E8520E030E040E251E40E941F0251
:10302000DC01CB01BC01CD010E944900DC01CB01D8
:103030009E838D830FC088EC90E09C838B838B8173
:103040009C810197F1F79C838B838D819E810197F1
:103050009E838D838D819E81009769F714C06F8157
:10306000788589859A850E944900DC01CB019E8381
:103070008D838D819E819A83898389819A8101972D
:10308000F1F79A83898386E00E944F18E8960FB67D
:10309000F894DEBF0FBECDBFCF91DF910895DF93CF
:1030A000CF93CDB7DEB76D970FB6F894DEBF0FBEE6
:1030B000CDBF8D8F80E060E040E00E946D0E80E02B
:1030C00061E040E00E946D0E82E06D8D0E941F1055
:1030D00080E062E041E00E946D0E80E090E0A0E8B8
:1030E000BFE3898F9A8FAB8FBC8F698D7A8D8B8D63
:1030F0009C8D20E030E04AEF54E40E941F02DC0186
:10310000CB018D8B9E8BAF8BB88F6D897E898F891C
:10311000988D20E030E040E85FE30E947903882347
:103120002CF481E090E09C8B8B8B3FC06D897E8975
:103130008F89988D20E03FEF4FE757E40E941903F5
:1031400018164CF5698D7A8D8B8D9C8D20E030E0C2
:1031500040E251E40E941F02DC01CB01BC01CD0121
:103160000E944900DC01CB019C8B8B8B0FC088EC4B
:1031700090E09A8B898B89899A890197F1F79A8BCC
:10318000898B8B899C8901979C8B8B8B8B899C89E4
:10319000009769F714C06D897E898F89988D0E9488
:1031A0004900DC01CB019C8B8B8B8B899C89988B94
:1031B0008F878F8598890197F1F7988B8F8780E0AB
:1031C00062E040E00E946D0E80E090E0A0E8BFE386
:1031D0008B879C87AD87BE876B857C858D859E851B
:1031E00020E030E04AEF54E40E941F02DC01CB01F2
:1031F0008F839887A987BA876F81788589859A8513
:1032000020E030E040E85FE30E94790388232CF45B
:1032100081E090E09E838D833FC06F8178858985B2
:103220009A8520E03FEF4FE757E40E9419031816F4
:103230004CF56B857C858D859E8520E030E040E2F5
:1032400051E40E941F02DC01CB01BC01CD010E94B0
:103250004900DC01CB019E838D830FC088EC90E098
:103260009C838B838B819C810197F1F79C838B835B
:103270008D819E8101979E838D838D819E81009794
:1032800069F714C06F81788589859A850E94490005
:10329000DC01CB019E838D838D819E819A838983FE
:1032A00089819A810197F1F79A8389836D960FB688
:1032B000F894DEBF0FBECDBFCF91DF910895DF93AD
:1032C000CF93CDB7DEB76D970FB6F894DEBF0FBEC4
:1032D000CDBF8D8F80E060E041E00E946D0E80E008
:1032E00061E040E00E946D0E82E06D8D0E941F1033
:1032F00080E062E041E00E946D0E80E090E0A0E896
:10330000BFE3898F9A8FAB8FBC8F698D7A8D8B8D40
:103310009C8D20E030E04AEF54E40E941F02DC0163
:10332000CB018D8B9E8BAF8BB88F6D897E898F89FA
:10333000988D20E030E040E85FE30E947903882325
:103340002CF481E090E09C8B8B8B3FC06D897E8953
:103350008F89988D20E03FEF4FE757E40E941903D3
:1033600018164CF5698D7A8D8B8D9C8D20E030E0A0
:1033700040E251E40E941F02DC01CB01BC01CD01FF
:103380000E944900DC01CB019C8B8B8B0FC088EC29
:1033900090E09A8B898B89899A890197F1F79A8BAA
:1033A000898B8B899C8901979C8B8B8B8B899C89C2
:1033B000009769F714C06D897E898F89988D0E9466
:1033C0004900DC01CB019C8B8B8B8B899C89988B72
:1033D0008F878F8598890197F1F7988B8F8780E089
:1033E00062E040E00E946D0E80E090E0A0E8BFE364
:1033F0008B879C87AD87BE876B857C858D859E85F9
:1034000020E030E04AEF54E40E941F02DC01CB01CF
:103410008F839887A987BA876F81788589859A85F0
:1034200020E030E040E85FE30E94790388232CF439
:1034300081E090E09E838D833FC06F817885898590
:103440009A8520E03FEF4FE757E40E9419031816D2
:103450004CF56B857C858D859E8520E030E040E2D3
:1034600051E40E941F02DC01CB01BC01CD010E948E
:103470004900DC01CB019E838D830FC088EC90E076
:103480009C838B838B819C810197F1F79C838B8339
:103490008D819E8101979E838D838D819E81009772
:1034A00069F714C06F81788589859A850E944900E3
:1034B000DC01CB019E838D838D819E819A838983DC
:1034C00089819A810197F1F79A8389836D960FB666
:1034D000F894DEBF0FBECDBFCF91DF910895DF938B
:1034E000CF9300D00F92CDB7DEB79B838A8319822A
:1034F0000EC08981282F30E08A819B81FC01E20F78
:10350000F31F80810E945F1989818F5F8983898180
:10351000282F30E08A819B81FC01E20FF31F80811C
:10352000882339F70F900F900F90CF91DF91089576
:103530000F931F93DF93CF93CDB7DEB760970FB68E
:10354000F894DEBF0FBECDBF6D877E878F87988BC7
:103550001A828AE0FE013396DF01982F1D929A9518
:10356000E9F72EC08A81082F10E08D859E85AF85F2
:10357000B8892AE030E040E050E0BC01CD010E9473
:103580009931DC01CB01282F205DCE010396FC018F
:10359000E00FF11F20838D859E85AF85B8892AE0D5
:1035A00030E040E050E0BC01CD010E949931DA01E9
:1035B000C9018D879E87AF87B88B8A818F5F8A8389
:1035C0008D859E85AF85B8890097A105B10551F617
:1035D00089E089831DC08981282F332727FD3095F5
:1035E000CE010396FC01E20FF31F8081882369F06E
:1035F0008981282F332727FD3095CE010396FC01C2
:10360000E20FF31F80810E945F19898181508983B5
:103610008981882304F760960FB6F894DEBF0FBE49
:10362000CDBFCF91DF911F910F910895DF93CF937D
:1036300000D000D0CDB7DEB789836A83898182301C
:10364000D8F48A818031C0F48981282F30E03C830E
:103650002B838B819C81009731F02B813C81213021
:10366000310531F009C08A8180580E944F1804C08A
:103670008A8180540E944F180F900F900F900F90E6
:10368000CF91DF910895DF93CF93CDB7DEB781E07F
:103690000E944F18CF91DF910895DF93CF9300D010
:1036A00000D000D0CDB7DEB78A837C836B838A815C
:1036B000282F30E03E832D838D819E8183309105BC
:1036C000A9F12D813E81243031057CF48D819E81CC
:1036D0008130910519F12D813E812230310514F59B
:1036E0008D819E810097B1F047C02D813E812530AC
:1036F000310521F18D819E8185309105DCF02D8190
:103700003E8126303105F1F08D819E818730910513
:10371000E9F032C080E40E944F181BC088E40E9488
:103720004F1817C080E50E944F1813C088E50E940B
:103730004F180FC080E60E944F180BC088E60E9409
:103740004F1807C080E70E944F1803C088E70E9407
:103750004F1819820EC08981282F30E08B819C81FF
:10376000FC01E20FF31F80810E945F1989818F5F46
:1037700089838981883078F326960FB6F894DEBF66
:103780000FBECDBFCF91DF910895DF93CF9300D0CF
:103790000F92CDB7DEB789836A834B8389818830E6
:1037A00068F48A81823050F48B81803138F48A81C8
:1037B0006B810E94161B89810E945F190F900F90E8
:1037C0000F90CF91DF910895DF93CF930F92CDB7F4
:1037D000DEB719820DC080E0698141E00E94760D5C
:1037E00080E0698141E00E946D0E89818F5F89834D
:1037F0008981833080F384E089830DC080E0698112
:1038000040E00E94760D80E0698141E00E946D0EEB
:1038100089818F5F89838981873080F30F90CF9171
:10382000DF910895DF93CF93CDB7DEB763970FB6DF
:10383000F894DEBF0FBECDBF9A8B898B188AB9C0B2
:1038400080E0688940E00E946D0E84E08F87A5C00B
:1038500080E06F850E94640F882309F09BC080E0A0
:1038600090E0A0EAB1E48B879C87AD87BE876B852B
:103870007C858D859E8520E030E04AEF54E40E94EF
:103880001F02DC01CB018F839887A987BA876F81DC
:10389000788589859A8520E030E040E85FE30E94E2
:1038A000790388232CF481E090E09E838D833FC0D0
:1038B0006F81788589859A8520E03FEF4FE757E44F
:1038C0000E94190318164CF56B857C858D859E85A5
:1038D00020E030E040E251E40E941F02DC01CB0115
:1038E000BC01CD010E944900DC01CB019E838D8388
:1038F0000FC088EC90E09C838B838B819C81019727
:10390000F1F79C838B838D819E8101979E838D83AC
:103910008D819E81009769F714C06F8178858985B4
:103920009A850E944900DC01CB019E838D838D81A5
:103930009E819A83898389819A810197F1F79A837D
:10394000898380E06F850E94640F882319F580E0E9
:103950006F850E94640F8823D1F380E0688941E07D
:103960000E946D0E8F85282F30E0C901880F991FA6
:10397000820F931F9C012C50304089899A89280F0F
:10398000391F8889882F90E0F901E80FF91F80819D
:103990008B8B15C08F858F5F8F878F85873008F45D
:1039A00057CF80E0688941E00E946D0E88898F5F63
:1039B000888B8889833008F443CF8FEF8B8B8B897A
:1039C00063960FB6F894DEBF0FBECDBFCF91DF91E7
:1039D0000895DF93CF93CDB7DEB727970FB6F8944E
:1039E000DEBF0FBECDBF9D838C836E834F838AE184
:1039F00090E00E94C11F9A83898389819A810097F0
:103A000009F46FC08091F4009091F500009741F4A3
:103A100089819A819093F5008093F4000E94501F51
:103A20008E81823010F081E08E83E981FA81118EDF
:103A3000108EE981FA818E81868BE981FA818F81EE
:103A4000878BE981FA818C819D8191838083898133
:103A50009A8102960E94572089819A810C960E9431
:103A60005720E981FA8189819A8191878087E9814C
:103A7000FA8189819A81938B828B8E81282F30E005
:103A800084E090E0821B930BE981FA81958784871B
:103A9000E981FA8196898091F600891728F4E981F5
:103AA000FA8186898093F600E981FA818689282F38
:103AB00030E0C901880F991F880F991F880F991F3F
:103AC000820F931FAC0143505F4F89819A819C0103
:103AD0002E5F3F4FCA01B9010E94672081E08B83AE
:103AE00002C08FEF8B838B8127960FB6F894DEBFD1
:103AF0000FBECDBFCF91DF910895DF93CF9300D05C
:103B000000D000D0CDB7DEB79C838B837E836D83DE
:103B10002091F7003091F8008B819C81820F931FD8
:103B20009A8389838091F4009091F50002960E9417
:103B30001F21E091F400F091F50089819A8193832F
:103B400082832091F7003091F80089819A81821751
:103B5000930770F480912301909124012091F40047
:103B60003091F5002E5F3F4FB9010E94B3200DC088
:103B700080912101909122012091F4003091F50073
:103B80002E5F3F4FB9010E94B3208D819E81009727
:103B900061F08091F4009091F5009C01245F3F4F0B
:103BA0008D819E81B9010E94B32026960FB6F894AC
:103BB000DEBF0FBECDBFCF91DF910895DF93CF93CE
:103BC00000D0CDB7DEB73AC0F894E0912A01F09169
:103BD0002B01868197819A83898389819A810C96AA
:103BE0000E941F21789489819A8102960E941F2148
:103BF000E981FA8196898091F600891728F4E98194
:103C0000FA8186898093F600E981FA818689282FD6
:103C100030E0C901880F991F880F991F880F991FDD
:103C2000820F931FAC0143505F4F89819A819C01A1
:103C30002E5F3F4FCA01B9010E9467208091250184
:103C4000882309F0C1CF0F900F90CF91DF91089595
:103C5000DF93CF9300D000D0CDB7DEB70E940B2DFD
:103C60002091F9003091FA00821B930B9093FC0095
:103C70008093FB0085C08091F7009091F800019639
:103C80009093F8008093F7008091FB009091FC00E6
:103C900001979093FC008093FB008091F700909136
:103CA000F800009709F064C08091210190912201F1
:103CB0009A8389838091230190912401909322011A
:103CC0008093210189819A8190932401809323011B
:103CD0004FC0E0912101F09122010580F681E02D95
:103CE000868197819C838B83EB81FC812281338148
:103CF0008091F7009091F8008217930708F440C074
:103D0000F8948B819C8102960E941F21EB81FC819B
:103D100084899589009729F08B819C810C960E945B
:103D20001F217894EB81FC8196898091F600891798
:103D300028F4EB81FC8186898093F600EB81FC817D
:103D40008689282F30E0C901880F991F880F991F95
:103D5000880F991F820F931FAC0143505F4F8B81D7
:103D60009C819C012E5F3F4FCA01B9010E946720D0
:103D7000E0912101F09122018081882309F0A9CFEF
:103D80008091FB009091FC00009709F074CF809126
:103D9000F7009091F8009093FA008093F9000F904B
:103DA0000F900F900F90CF91DF910895DF93CF93F5
:103DB00000D0CDB7DEB70E94DE1D0E94281E0AC0CB
:103DC0008091F600882309F466C08091F600815046
:103DD0008093F6008091F600282F30E0C901880F0B
:103DE000991F880F991F880F991F820F931FFC013D
:103DF000E350FF4F8081882319F38091F600282F2C
:103E000030E0C901880F991F880F991F880F991FEB
:103E1000820F931F83509F4F9A838983E981FA8190
:103E20000180F281E02D82819381E981FA81928380
:103E30008183E981FA812181328189819A81039686
:103E40002817390759F4E981FA810180F281E02DC0
:103E500082819381E981FA8192838183E981FA8168
:103E60000180F281E02D868197819093F500809307
:103E7000F400E091F400F091F500408151818091CF
:103E8000F4009091F500E091F400F091F50027899D
:103E9000622FFA0109950F900F90CF91DF9108954D
:103EA000DF93CF930F92CDB7DEB7198213C089810C
:103EB000282F30E0C901880F991F880F991F880F9C
:103EC000991F820F931F83509F4F0E942D2089813D
:103ED0008F5F89838981823050F38FE091E00E9467
:103EE0002D2088E191E00E942D2085E291E00E9442
:103EF0002D208FE091E0909322018093210188E1B1
:103F000091E090932401809323010F90CF91DF9152
:103F10000895DF93CF9300D000D00F92CDB7DEB7D6
:103F20009D838C83EC81FD810580F681E02D868167
:103F300097819B838A838A819B810C960E941F2193
:103F40008A819B819C01245F3F4F85E291E0B9010A
:103F50000E946720EA81FB819689E091F400F0914C
:103F6000F5008689981718F081E0898301C01982CD
:103F700089810F900F900F900F900F90CF91DF914C
:103F80000895DF93CF9300D000D0CDB7DEB79C83E8
:103F90008B831A8219820E94752C80912E01909138
:103FA0002F012B813C81820F931F23E0883E9207D3
:103FB00018F520912E0130912F018B819C81280FC3
:103FC000391F80912E0190912F0182179307A0F441
:103FD00080912E0190912F01805D9E4F9A8389835D
:103FE00020912E0130912F018B819C81820F931F94
:103FF00090932F0180932E010E94812C89819A81B8
:104000000F900F900F900F90CF91DF910895DF9355
:10401000CF9300D0CDB7DEB79A8389830F900F90EE
:10402000CF91DF910895DF93CF93CDB7DEB7109294
:104030002F0110922E01CF91DF910895DF93CF933E
:10404000CDB7DEB720912E0130912F0188EE93E09D
:10405000821B930BCF91DF910895DF93CF9300D014
:10406000CDB7DEB79A83898389819A810396E981E6
:10407000FA8192838183E981FA818FEF9FEF9483A4
:10408000838389819A810396E981FA819683858366
:1040900089819A810396E981FA8190878783E981F2
:1040A000FA8110820F900F90CF91DF910895DF93E6
:1040B000CF9300D0CDB7DEB79A838983E981FA81A7
:1040C000118610860F900F90CF91DF910895DF93A6
:1040D000CF9300D000D000D0CDB7DEB79C838B83C8
:1040E0007E836D83EB81FC81818192819A838983B8
:1040F000E981FA8182819381ED81FE8193838283BC
:10410000EB81FC8181819281ED81FE8195838483A5
:10411000E981FA810280F381E02D8D819E81958372
:1041200084838D819E81E981FA81938382838D814D
:104130009E81EB81FC8192838183ED81FE818B8165
:104140009C8191878087EB81FC8180818F5FEB81EF
:10415000FC81808326960FB6F894DEBF0FBECDBFDC
:10416000CF91DF910895DF93CF93CDB7DEB7289736
:104170000FB6F894DEBF0FBECDBF9E838D837887C8
:104180006F83EF81F885808191819A83898389810A
:104190009A812FEF8F3F920739F4ED81FE8187815D
:1041A00090859C838B8318C08D819E8103969C8310
:1041B0008B8306C0EB81FC81828193819C838B83FE
:1041C000EB81FC810280F381E02D208131818981A6
:1041D0009A818217930770F7EB81FC81828193812A
:1041E000EF81F88593838283EF81F8850280F381E4
:1041F000E02D8F81988595838483EF81F8858B816D
:104200009C81958384838F819885EB81FC81938346
:104210008283EF81F8858D819E8191878087ED81F2
:10422000FE8180818F5FED81FE81808328960FB6AD
:10423000F894DEBF0FBECDBFCF91DF910895DF931D
:10424000CF9300D000D0CDB7DEB79C838B83EB81BA
:10425000FC81A281B381EB81FC81848195811596DB
:104260009C938E931497EB81FC81A481B581EB81A3
:10427000FC818281938113969C938E931297EB819C
:10428000FC81808591859A838983E981FA812181E6
:1042900032818B819C812817390741F4EB81FC81A5
:1042A00084819581E981FA8192838183EB81FC810C
:1042B00011861086E981FA8180818150E981FA8135
:1042C00080830F900F900F900F90CF91DF91089502
:1042D000DF93CF93CDB7DEB728970FB6F894DEBF44
:1042E0000FBECDBF9C838B837E836D8358874F83A6
:1042F000EB81FC8181E180838B819C8101979C8390
:104300008B83EB81FC8182E280838B819C8101978E
:104310009C838B83EB81FC8183E380838B819C81F5
:1043200001979C838B838D819E819A838983898168
:10433000EB81FC8180838B819C8101979C838B83A3
:1043400089819A81892F99279A8389838981EB8131
:10435000FC8180838B819C8101979C838B83EB8183
:10436000FC8110828B819C8101979C838B83EB81E4
:10437000FC8180E880838B819C8101979C838B8367
:10438000EB81FC8110828B819C8101979C838B83C4
:10439000EB81FC8182E080838B819C8101979C83EF
:1043A0008B83EB81FC8183E080838B819C810197EF
:1043B0009C838B83EB81FC8184E080838B819C8157
:1043C00001979C838B83EB81FC8185E080838B81CB
:1043D0009C8101979C838B83EB81FC8186E08083A9
:1043E0008B819C8101979C838B83EB81FC8187E08F
:1043F00080838B819C8101979C838B83EB81FC81E3
:1044000088E080838B819C8101979C838B83EB81E7
:10441000FC8189E080838B819C8101979C838B83C5
:10442000EB81FC8180E180838B819C8101979C835F
:104430008B83EB81FC8181E180838B819C8101975F
:104440009C838B83EB81FC8182E180838B819C81C7
:1044500001979C838B83EB81FC8183E180838B813B
:104460009C8101979C838B83EB81FC8184E1808319
:104470008B819C8101979C838B83EB81FC8185E1FF
:1044800080838B819C8101979C838B83EB81FC8152
:1044900086E180838B819C8101979C838B83EB8158
:1044A000FC8187E180838B819C8101979C838B8336
:1044B000EB81FC8188E180838B819C8101979C83C7
:1044C0008B83EB81FC8189E180838B819C810197C7
:1044D0009C838B83EB81FC8180E280838B819C8138
:1044E00001979C838B83EB81FC8181E280838B81AC
:1044F0009C8101979C838B83EB81FC8182E280838A
:104500008B819C8101979C838B83EB81FC8183E26F
:1045100080838B819C8101979C838B838F8198857D
:104520009A8389838981EB81FC8180838B819C8143
:1045300001979C838B8389819A81892F99279A83FC
:1045400089838981EB81FC8180838B819C810197A8
:104550009C838B83EB81FC8186E280838B819C81B1
:1045600001979C838B83EB81FC8187E280838B8125
:104570009C8101979C838B83EB81FC8188E2808303
:104580008B819C8101979C838B83EB81FC8189E2E9
:1045900080838B819C8101979C838B83EB81FC8141
:1045A00080E380838B819C8101979C838B83EB814B
:1045B000FC8181E380838B819C8101979C838B8329
:1045C0008B819C8128960FB6F894DEBF0FBECDBFBD
:1045D000CF91DF910895DF93CF93CDB7DEB70E94DF
:1045E000DB23A0911805B0911905CD91CDBFDD91C8
:1045F000DEBFFF91EF91DF91CF91BF91AF919F917E
:104600008F917F916F915F914F913F912F911F916A
:104610000F91FF90EF90DF90CF90BF90AF909F9061
:104620008F907F906F905F904F903F902F901F9052
:104630000F900FBE0F90089581E0CF91DF91089504
:10464000DF93CF93CDB7DEB7CF91DF9108950F926F
:104650000FB6F8940F921F9211242F923F924F920F
:104660005F926F927F928F929F92AF92BF92CF9202
:10467000DF92EF92FF920F931F932F933F934F93ED
:104680005F936F937F938F939F93AF93BF93CF93DA
:10469000DF93EF93FF93A0911805B09119050DB624
:1046A0000D920EB60D920E94152EA0911805B09194
:1046B0001905CD91CDBFDD91DEBFFF91EF91DF9167
:1046C000CF91BF91AF919F918F917F916F915F91AA
:1046D0004F913F912F911F910F91FF90EF90DF909D
:1046E000CF90BF90AF909F908F907F906F905F9092
:1046F0004F903F902F901F900F900FBE0F900895F6
:104700000F920FB6F8940F921F9211242F923F929E
:104710004F925F926F927F928F929F92AF92BF92D1
:10472000CF92DF92EF92FF920F931F932F933F93BD
:104730004F935F936F937F938F939F93AF93BF93A9
:10474000CF93DF93EF93FF93A0911805B0911905D4
:104750000DB60D920EB60D920E94402D0E94152EA0
:10476000A0911805B0911905CD91CDBFDD91DEBFA7
:10477000FF91EF91DF91CF91BF91AF919F918F9179
:104780007F916F915F914F913F912F911F910F9169
:10479000FF90EF90DF90CF90BF90AF909F908F9061
:1047A0007F906F905F904F903F902F901F900F9051
:1047B0000FBE0F900895DF93CF9300D000D000D0AC
:1047C000CDB7DEB780E898E3A1E0B0E08B839C83AF
:1047D000AD83BE838B819C81AD81BE81689415F8C9
:1047E000B695A795979587951694D1F78B839C835B
:1047F000AD83BE838B819C81AD81BE810197A10970
:10480000B1098B839C83AD83BE838B8189838B812C
:104810009C81AD81BE81892F9A2FAB2FBB278B83C3
:104820009C83AD83BE838B818A83EBE4F0E08A8135
:104830008083EAE4F0E0898180838BE08983EEE481
:10484000F0E089818083E9E5F0E0808189838981D6
:1048500080618983E9E5F0E08981808326960FB63F
:10486000F894DEBF0FBECDBFCF91DF9108950E94B7
:1048700080231895DF93CF93CDB7DEB728970FB677
:10488000F894DEBF0FBECDBF8F8368871A8219826E
:104890008F81882309F48CC08FE190E00E94C11FB2
:1048A0009E838D838D819E81009709F481C08F81C5
:1048B000282F30E08885882F90E0AC01249FC0012C
:1048C000259F900D349F900D112401969C838B831E
:1048D0008B819C810E94C11FED81FE819183808329
:1048E000ED81FE8180819181009709F45DC0ED81A9
:1048F000FE81408151818F81282F30E08885882F6B
:1049000090E0BC01269FC001279F900D369F900D1F
:104910001124840F951FED81FE8193838283ED81A5
:10492000FE81128EED81FE8180819181ED81FE817B
:1049300095838483ED81FE81408151818F81882F11
:1049400090E09C01215030408885882F90E0BC0188
:10495000269FC001279F900D369F900D1124840F34
:10496000951FED81FE8197838683ED81FE818F8186
:10497000838FED81FE818885848FED81FE818FEFAD
:10498000858FED81FE818FEF868F8D819E810896C8
:104990000E942D208D819E8141960E942D208D8127
:1049A0009E819A83898304C08D819E810E94072005
:1049B00089819A8128960FB6F894DEBF0FBECDBFCD
:1049C000CF91DF910895DF93CF9300D000D0CDB782
:1049D000DEB78B836C838B8160E00E943A249A83DC
:1049E000898389819A81009721F0E981FA818C81FC
:1049F000828F89819A810F900F900F900F90CF91A5
:104A0000DF910895DF93CF93CDB7DEB72C970FB624
:104A1000F894DEBF0FBECDBF9E838D8378876F83F2
:104A20005A8749872B8719820FB6F8940F92ED8128
:104A3000FE81928DED81FE81838D9817D8F48D8152
:104A40009E812F813885B9014B850E943D27ED81DC
:104A5000FE818189882349F08D819E8141960E9443
:104A6000C42E813011F40E9427230F900FBE81E0E5
:104A70008C875CC089859A85009721F40F900FBEC2
:104A80001C8654C08981882331F4CE0102960E948D
:104A90002C2F81E089830F900FBE0E94752C0FB6DA
:104AA000F8940F92ED81FE81858D8F3F19F4ED8191
:104AB000FE81158EED81FE81868D8F3F19F4ED818B
:104AC000FE81168E0F900FBECE0102969E01275FCB
:104AD0003F4FB9010E94452F882309F58D819E81A2
:104AE0000E94A1288823A1F08D819E8108962985A6
:104AF0003A85B9010E947B2E8D819E810E941A28E1
:104B00000E94812C882309F08FCF0E9427238CCF0D
:104B10008D819E810E941A280E94812C85CF8D81D3
:104B20009E810E941A280E94812C1C868C852C96BE
:104B30000FB6F894DEBF0FBECDBFCF91DF910895C1
:104B4000DF93CF93CDB7DEB729970FB6F894DEBFCA
:104B50000FBECDBF9C838B837E836D8358874F832D
:104B600029871982EB81FC81928DEB81FC81838DF9
:104B7000981740F58B819C812D813E81B901498533
:104B80000E943D27EB81FC81868D8F3F89F4EB816C
:104B9000FC818189882399F08B819C8141960E94B8
:104BA000C42E882361F0EF81F88581E0808307C0FF
:104BB000EB81FC81868D8F5FEB81FC81868F81E0AC
:104BC0008A8301C01A828A8129960FB6F894DEBFC3
:104BD0000FBECDBFCF91DF910895DF93CF93CDB7B7
:104BE000DEB72E970FB6F894DEBF0FBECDBF988705
:104BF0008F837A8769875C874B872D871B820FB6E7
:104C0000F8940F92EF81F885828D882309F43FC0D4
:104C1000EF81F885868197819A8389838F81988532
:104C200029853A85B9010E94D2278D858823B1F460
:104C3000EF81F885828D8150EF81F885828FEF8139
:104C4000F88580858823F1F08F81988508960E94E9
:104C5000C42E8130B9F40E94272314C0EF81F88557
:104C600089819A8197838683EF81F885818988235A
:104C700049F08F81988541960E94C42E882311F0B7
:104C80000E9427230F900FBE81E08E875CC08B852A
:104C90009C85009721F40F900FBE1E8654C08B8117
:104CA000882331F4CE0104960E942C2F81E08B835F
:104CB0000F900FBE0E94752C0FB6F8940F92EF81E3
:104CC000F885858D8F3F19F4EF81F885158EEF817A
:104CD000F885868D8F3F19F4EF81F885168E0F9039
:104CE0000FBECE0104969E01255F3F4FB9010E9481
:104CF000452F882309F58F8198850E946E28882387
:104D0000A1F08F81988541962B853C85B9010E9441
:104D10007B2E8F8198850E941A280E94812C8823DF
:104D200009F06DCF0E9427236ACF8F8198850E945A
:104D30001A280E94812C63CF8F8198850E941A289F
:104D40000E94812C1E868E852E960FB6F894DEBFAB
:104D50000FBECDBFCF91DF910895DF93CF93CDB735
:104D6000DEB728970FB6F894DEBF0FBECDBF9C8389
:104D70008B837E836D8358874F831982EB81FC81FF
:104D8000828D882371F18B819C812D813E81B901B7
:104D90000E94D227EB81FC81828D8150EB81FC81C6
:104DA000828FEB81FC81858D8F3F89F4EB81FC81C3
:104DB0008085882399F08B819C8108960E94C42E5F
:104DC000882361F0EF81F88581E0808307C0EB8163
:104DD000FC81858D8F5FEB81FC81858F81E08A83EB
:104DE00001C01A828A8128960FB6F894DEBF0FBEE2
:104DF000CDBFCF91DF910895DF93CF9300D00F9275
:104E0000CDB7DEB79B838A830FB6F8940F92EA8101
:104E1000FB81828D89830F900FBE89810F900F9047
:104E20000F90CF91DF910895DF93CF9300D00F9231
:104E3000CDB7DEB79B838A83EA81FB81828D89832C
:104E400089810F900F900F90CF91DF910895DF939C
:104E5000CF9300D0CDB7DEB79A838983E981FA81F9
:104E6000808191810E94072089819A810E94072078
:104E70000F900F90CF91DF910895DF93CF9300D0E3
:104E800000D00F92CDB7DEB79A8389837C836B8382
:104E90004D83E981FA81848D882309F474C08D8162
:104EA000882399F5E981FA8164817581E981FA8124
:104EB000848D482F50E02B813C81CB01B9010E94A9
:104EC000F231E981FA8124813581E981FA81848D89
:104ED000882F90E0820F931FE981FA819583848364
:104EE000E981FA8124813581E981FA818281938186
:104EF0002817390708F447C0E981FA818081918138
:104F0000E981FA81958384833EC0E981FA816681D3
:104F10007781E981FA81848D482F50E02B813C8193
:104F2000CB01B9010E94F231E981FA8126813781F2
:104F3000E981FA81848D882F90E0909581959F4F2B
:104F4000820F931FE981FA8197838683E981FA8131
:104F500026813781E981FA8180819181281739077B
:104F600090F4E981FA8122813381E981FA81848D8B
:104F7000882F90E0909581959F4F820F931FE98134
:104F8000FA8197838683E981FA81828D8F5FE98137
:104F9000FA81828F0F900F900F900F900F90CF910A
:104FA000DF910895DF93CF9300D000D0CDB7DEB767
:104FB0009A8389837C836B83E981FA8180819181E3
:104FC000009789F1E981FA8126813781E981FA81A7
:104FD000848D882F90E0820F931FE981FA81978357
:104FE0008683E981FA8126813781E981FA8182818C
:104FF00093812817390740F0E981FA8180819181F6
:10500000E981FA8197838683E981FA814681578114
:10501000E981FA81848D282F30E08B819C81BA014F
:10502000A9010E94F2310F900F900F900F90CF9135
:10503000DF910895DF93CF9300D0CDB7DEB79A8389
:1050400089830FB6F8940F9215C0E981FA8181899E
:105050008823A9F089819A8141960E94C42E8823D1
:1050600011F00E94AC2FE981FA81868D8150E9818F
:10507000FA81868FE981FA81868D181634F3E981E9
:10508000FA818FEF868F0F900FBE0FB6F8940F92B4
:1050900015C0E981FA8180858823A9F089819A81E8
:1050A00008960E94C42E882311F00E94AC2FE9813B
:1050B000FA81858D8150E981FA81858FE981FA81B4
:1050C000858D181634F3E981FA818FEF858F0F9063
:1050D0000FBE0F900F90CF91DF910895DF93CF9384
:1050E00000D00F92CDB7DEB79B838A830FB6F894BA
:1050F0000F92EA81FB81828D1982882311F481E06D
:1051000089830F900FBE89810F900F900F90CF91E0
:10511000DF910895DF93CF9300D00F92CDB7DEB724
:105120009B838A83EA81FB81828D1982882311F413
:1051300081E0898389810F900F900F90CF91DF914B
:105140000895DF93CF9300D00F92CDB7DEB79B8346
:105150008A830FB6F8940F92EA81FB81928DEA81DF
:10516000FB81838D1982981711F481E089830F9058
:105170000FBE89810F900F900F90CF91DF9108950E
:10518000DF93CF9300D00F92CDB7DEB79B838A8396
:10519000EA81FB81928DEA81FB81838D19829817C8
:1051A00011F481E0898389810F900F900F90CF9146
:1051B000DF910895AF92BF92CF92DF92EF92FF926C
:1051C0000F931F93DF93CF93CDB7DEB764970FB6DE
:1051D000F894DEBF0FBECDBF9F838E83798768872B
:1051E0005B874A873D872C870E87F88AEF86DA8AA5
:1051F000C98ABC8AAB8A8A859B8529893A89B90183
:105200000E94DF309C838B838B819C81009709F403
:1052100099C0EB81FC812789308D8A859B85019718
:10522000820F931F9A8389838B819C81288539857E
:10523000EB89FC89AA85BB85B9014E859F018D014B
:105240000E94C02F89819A812E813F814C855D8586
:10525000B9010E946821EB81FC81918380838F8555
:105260009889009731F0EF85F8898B819C81918333
:1052700080830FB6F8940F9280911B058F5F809307
:105280001B058091180590911905009769F48B8191
:105290009C81909319058093180580911B0581309E
:1052A000A9F40E94173012C080912005882371F460
:1052B000E0911805F091190596898E85891730F0CF
:1052C0008B819C819093190580931805EB81FC815B
:1052D000968980911E05891728F4EB81FC818689C7
:1052E00080931E05809125058F5F80932505EB81B6
:1052F000FC81968980911F05891728F4EB81FC8138
:10530000868980931F05EB81FC818689282F30E0F8
:10531000C901880F991F880F991F880F991F820F45
:10532000931FAC014A5D5A4F8B819C819C012E5F7B
:105330003F4FCA01B9010E94672081E08D830F9021
:105340000FBE02C08FEF8D838D81813071F480910B
:105350002005882351F0E0911805F09119059689F0
:105360008E85981710F40E9427238D8164960FB6BE
:10537000F894DEBF0FBECDBFCF91DF911F910F918B
:10538000FF90EF90DF90CF90BF90AF900895DF93A4
:10539000CF9300D000D000D0CDB7DEB79C838B83F5
:1053A0000FB6F8940F9220911805309119058B8152
:1053B0009C818217930711F41C821B828B819C8134
:1053C000009739F480911805909119059E838D837B
:1053D00004C08B819C819E838D838D819E819A8365
:1053E000898389819A8102960E941F21E981FA812D
:1053F00084899589009729F089819A810C960E9469
:105400001F2189819A819C012E5F3F4F89E695E09B
:10541000B9010E94672080911A058F5F80931A0559
:10542000809125058F5F809325050F900FBE809199
:105430002005882331F08B819C81009711F40E9414
:10544000272326960FB6F894DEBF0FBECDBFCF91AF
:10545000DF910895DF93CF93CDB7DEB728970FB6CE
:10546000F894DEBF0FBECDBF9E838D8378876F8398
:1054700019820E94752CED81FE81208131818F81FE
:105480009885820F931F9C838B83ED81FE81208101
:10549000318180911C0590911D0582179307A8F416
:1054A000ED81FE81208131818B819C818217930760
:1054B00000F520911C0530911D058B819C812817DA
:1054C0003907B8F481E0898314C0ED81FE81208121
:1054D00031818B819C818217930748F020911C05B4
:1054E00030911D058B819C812817390710F481E0CC
:1054F0008983ED81FE818B819C8191838083898169
:10550000882359F0809118059091190502960E9400
:105510001F218B819C810E9496300E94812C8A835E
:105520008A81882311F40E94272328960FB6F894C5
:10553000DEBF0FBECDBFCF91DF910895DF93CF9334
:1055400000D000D00F92CDB7DEB79D838C83198237
:105550008C819D810097D1F00E94752C20911C05B3
:1055600030911D058C819D81820F931F9B838A83BF
:10557000809118059091190502960E941F218A8139
:105580009B810E9496300E94812C89838981882387
:1055900011F40E9427230F900F900F900F900F90FF
:1055A000CF91DF910895DF93CF9300D000D000D04A
:1055B000CDB7DEB79C838B830FB6F8940F92209102
:1055C0001805309119058B819C818217930711F47E
:1055D0001C821B828B819C81009739F48091180575
:1055E000909119059E838D8304C08B819C819E833D
:1055F0008D838D819E819A83898389819A81029688
:105600000E941F21E981FA8184899589009729F0F8
:1056100089819A810C960E941F2189819A819C011F
:105620002E5F3F4F82E795E0B9010E9467200F90FF
:105630000FBE8B819C810097A1F480912005882367
:1056400019F00E9427230DC09091720580911B05CF
:10565000981729F4109219051092180502C00E949B
:10566000152E26960FB6F894DEBF0FBECDBFCF9194
:10567000DF910895DF93CF9300D000D00F92CDB784
:10568000DEB79D838C831B828C819D819A83898365
:10569000E981FA818285938525E08237920781F43A
:1056A000E981FA818489958925E08036920741F065
:1056B000E981FA8184899589009711F481E08B83CF
:1056C0008B810F900F900F900F900F90CF91DF91E3
:1056D0000895DF93CF9300D000D0CDB7DEB79C8381
:1056E0008B838B819C819A83898389819A8100979E
:1056F00009F44CC0209118053091190589819A81CF
:105700008217930709F442C00FB6F8940F9289816B
:105710009A810E943A2B8130B9F589819A8102964B
:105720000E941F21E981FA81968980911F058917BE
:1057300028F4E981FA81868980931F05E981FA813D
:105740008689282F30E0C901880F991F880F991F7B
:10575000880F991F820F931FAC014A5D5A4F8981B0
:105760009A819C012E5F3F4FCA01B9010E946720B8
:10577000E981FA819689E0911805F09119058689E9
:10578000981710F00E9427230F900FBE0F900F90D4
:105790000F900F90CF91DF910895DF93CF9300D0BA
:1057A00000D00F92CDB7DEB79D838C831B828C8196
:1057B0009D819A83898389819A810E943A2B8130C5
:1057C00009F047C0809121058823C9F5E981FA8154
:1057D0009689E0911805F091190586891B82981722
:1057E00010F081E08B8389819A8102960E941F21AB
:1057F000E981FA81968980911F05891728F4E9814A
:10580000FA81868980931F05E981FA818689282F8C
:1058100030E0C901880F991F880F991F880F991FC1
:10582000820F931FAC014A5D5A4F89819A819C0176
:105830002E5F3F4FCA01B9010E9467200AC08981CB
:105840009A819C01245F3F4F80E695E0B9010E9458
:1058500067208B810F900F900F900F900F90CF913A
:10586000DF910895AF92BF92CF92DF92EF92FF92B5
:105870000F93DF93CF930F92CDB7DEB720E630E0E2
:1058800086EB9FE2B90145E550E020E030E000E022
:10589000EE24FF24CC24DD24AA24BB240E94DA2891
:1058A00089838981813051F4F89481E080932005C7
:1058B00010921D0510921C050E94EB220F90CF91B3
:1058C000DF910F91FF90EF90DF90CF90BF90AF905E
:1058D0000895DF93CF93CDB7DEB7F89410922005EB
:1058E0000E942023CF91DF910895DF93CF93CDB70E
:1058F000DEB7809121058F5F80932105CF91DF91E5
:105900000895DF93CF9300D000D0CDB7DEB71A82D1
:105910000FB6F8940F928091210581508093210554
:1059200080912105882309F06CC080911B05882394
:1059300009F467C0198241C0E0916505F0916605E0
:10594000868197819C838B838B819C810C960E949E
:105950001F218B819C8102960E941F21EB81FC817B
:10596000968980911F05891728F4EB81FC8186892F
:1059700080931F05EB81FC818689282F30E0C901C7
:10598000880F991F880F991F880F991F820F931FE7
:105990008A5D9A4F2B813C812E5F3F4FB9010E9457
:1059A0006720EB81FC819689E0911805F09119053B
:1059B0008689981710F081E089838091600588239B
:1059C00009F0BACF80912205882371F007C00E94A8
:1059D000402D8091220581508093220580912205DF
:1059E0008823A9F781E089838981813021F0809122
:1059F0002305813031F481E08A83109223050E94CF
:105A000027230F900FBE8A810F900F900F900F9059
:105A1000CF91DF910895DF93CF9300D0CDB7DEB75C
:105A20000FB6F8940F9280911C0590911D059A83F2
:105A300089830F900FBE89819A810F900F90CF912B
:105A4000DF910895DF93CF9300D00F92CDB7DEB7EB
:105A5000198280911C0590911D059B838A838A8100
:105A60009B810F900F900F90CF91DF910895DF935E
:105A7000CF93CDB7DEB780911B05CF91DF9108950D
:105A8000DF93CF9300D000D000D0CDB7DEB78091A8
:105A90002105882309F0BBC080911C0590911D054C
:105AA000019690931D0580931C0580911C05909193
:105AB0001D050097D1F580915C0590915D059C8353
:105AC0008B8380915E0590915F0590935D05809337
:105AD0005C058B819C8190935F0580935E0580912E
